{
  "contractName": "Funder",
  "abi": [
    {
      "inputs": [],
      "name": "numberOfFunders",
      "outputs": [
        {
          "internalType": "uint256",
          "name": "",
          "type": "uint256"
        }
      ],
      "stateMutability": "view",
      "type": "function"
    },
    {
      "stateMutability": "payable",
      "type": "receive"
    },
    {
      "inputs": [],
      "name": "transfer",
      "outputs": [],
      "stateMutability": "payable",
      "type": "function"
    },
    {
      "inputs": [
        {
          "internalType": "uint256",
          "name": "withdeawAmount",
          "type": "uint256"
        }
      ],
      "name": "withdraw",
      "outputs": [],
      "stateMutability": "nonpayable",
      "type": "function"
    }
  ],
  "bytecode": "0x608060405234801561001057600080fd5b506102fd806100206000396000f3fe6080604052600436106100385760003560e01c80632e1a7d4d146100445780638a4068dd1461006d578063dc79a7fc146100775761003f565b3661003f57005b600080fd5b34801561005057600080fd5b5061006b600480360381019061006691906101cd565b6100a2565b005b610075610137565b005b34801561008357600080fd5b5061008c61018c565b6040516100999190610209565b60405180910390f35b671bc16d674ec800008111156100ed576040517f08c379a00000000000000000000000000000000000000000000000000000000081526004016100e4906102a7565b60405180910390fd5b3373ffffffffffffffffffffffffffffffffffffffff166108fc829081150290604051600060405180830381858888f19350505050158015610133573d6000803e3d6000fd5b5050565b33600160008054815260200190815260200160002060006101000a81548173ffffffffffffffffffffffffffffffffffffffff021916908373ffffffffffffffffffffffffffffffffffffffff160217905550565b60005481565b600080fd5b6000819050919050565b6101aa81610197565b81146101b557600080fd5b50565b6000813590506101c7816101a1565b92915050565b6000602082840312156101e3576101e2610192565b5b60006101f1848285016101b8565b91505092915050565b61020381610197565b82525050565b600060208201905061021e60008301846101fa565b92915050565b600082825260208201905092915050565b7f596f752077696c6c206861766520746f207769746864726177206c657373207460008201527f68616e2074686973000000000000000000000000000000000000000000000000602082015250565b6000610291602883610224565b915061029c82610235565b604082019050919050565b600060208201905081810360008301526102c081610284565b905091905056fea2646970667358221220d78b67a6e1a02abcb7f1ff8aba815a859eb71a7535566d53653106bcbeda044a64736f6c63430008110033",
  "immutableReferences": {},
  "source": "//SPDX-License-Identifier: MIT\r\npragma solidity ^0.8.6;\r\n\r\ncontract Funder{\r\n    uint public numberOfFunders;\r\n\r\n    mapping(uint=>address) private funders;\r\n\r\n    receive() external payable{}\r\n\r\n    function transfer() external payable{\r\n        funders[numberOfFunders] = msg.sender;\r\n    }\r\n\r\n    function withdraw(uint withdeawAmount) external {\r\n        require(withdeawAmount <= 2000000000000000000,\"You will have to withdraw less than this\");\r\n        payable(msg.sender).transfer(withdeawAmount);\r\n    }\r\n}",
  "sourcePath": "C:\\Users\\USER\\Desktop\\dapp\\contracts\\Funder.sol",
  "compiler": {
    "name": "solc",
    "version": "0.8.17+commit.8df45f5f.Emscripten.clang"
  },
  "schemaVersion": "3.4.11",
  "updatedAt": "2022-12-18T04:49:55.243Z",
  "devdoc": {
    "kind": "dev",
    "methods": {},
    "version": 1
  },
  "userdoc": {
    "kind": "user",
    "methods": {},
    "version": 1
  }
}